{
  "contractName": "TodoFactory",
  "abi": [
    {
      "anonymous": false,
      "inputs": [
        {
          "indexed": false,
          "name": "todoId",
          "type": "uint256"
        }
      ],
      "name": "OnTodoAdded",
      "type": "event"
    },
    {
      "anonymous": false,
      "inputs": [
        {
          "indexed": false,
          "name": "todoId",
          "type": "uint256"
        }
      ],
      "name": "OnTodoDeleted",
      "type": "event"
    },
    {
      "anonymous": false,
      "inputs": [
        {
          "indexed": false,
          "name": "todoId",
          "type": "uint256"
        }
      ],
      "name": "OnTodoCompleted",
      "type": "event"
    },
    {
      "constant": true,
      "inputs": [
        {
          "name": "_todoId",
          "type": "uint256"
        }
      ],
      "name": "isTodoValid",
      "outputs": [
        {
          "name": "isValid",
          "type": "bool"
        }
      ],
      "payable": false,
      "stateMutability": "view",
      "type": "function"
    },
    {
      "constant": true,
      "inputs": [
        {
          "name": "_todoId",
          "type": "uint256"
        }
      ],
      "name": "isTodoCompleted",
      "outputs": [
        {
          "name": "isValid",
          "type": "bool"
        }
      ],
      "payable": false,
      "stateMutability": "view",
      "type": "function"
    },
    {
      "constant": true,
      "inputs": [],
      "name": "getTodoList",
      "outputs": [
        {
          "name": "",
          "type": "uint256[]"
        },
        {
          "name": "",
          "type": "bool[]"
        }
      ],
      "payable": false,
      "stateMutability": "view",
      "type": "function"
    },
    {
      "constant": false,
      "inputs": [
        {
          "name": "_taskName",
          "type": "string"
        }
      ],
      "name": "addTodo",
      "outputs": [],
      "payable": false,
      "stateMutability": "nonpayable",
      "type": "function"
    },
    {
      "constant": false,
      "inputs": [
        {
          "name": "_todoId",
          "type": "uint256"
        }
      ],
      "name": "deleteTodo",
      "outputs": [],
      "payable": false,
      "stateMutability": "nonpayable",
      "type": "function"
    },
    {
      "constant": false,
      "inputs": [
        {
          "name": "_todoId",
          "type": "uint256"
        }
      ],
      "name": "completeTodo",
      "outputs": [],
      "payable": false,
      "stateMutability": "nonpayable",
      "type": "function"
    }
  ],
  "bytecode": "0x6060604052341561000f57600080fd5b6108ad8061001e6000396000f300606060405260043610610078576000357c0100000000000000000000000000000000000000000000000000000000900463ffffffff1680630c7a16be1461007d57806320fe21441461012f5780633850e7d5146101525780636e3c67381461018d5780637a3f48a8146101b057806395ffebf5146101eb575b600080fd5b341561008857600080fd5b610090610248565b604051808060200180602001838103835285818151815260200191508051906020019060200280838360005b838110156100d75780820151818401526020810190506100bc565b50505050905001838103825284818151815260200191508051906020019060200280838360005b838110156101195780820151818401526020810190506100fe565b5050505090500194505050505060405180910390f35b341561013a57600080fd5b6101506004808035906020019091905050610378565b005b341561015d57600080fd5b6101736004808035906020019091905050610401565b604051808215151515815260200191505060405180910390f35b341561019857600080fd5b6101ae6004808035906020019091905050610437565b005b34156101bb57600080fd5b6101d160048080359060200190919050506104bf565b604051808215151515815260200191505060405180910390f35b34156101f657600080fd5b610246600480803590602001908201803590602001908080601f0160208091040260200160405190810160405280939291908181526020018383808284378201915050505050509190505061050c565b005b6102506106a3565b6102586106b7565b60006102626106a3565b61026a6106a3565b6102726106b7565b60008061027d610604565b8097508196505050856040518059106102935750595b90808252806020026020018201604052509350856040518059106102b45750595b90808252806020026020018201604052509250600091505b858210156103685784828151811015156102e257fe5b9060200190602002015190508084838151811015156102fd57fe5b906020019060200201818152505060008181548110151561031a57fe5b906000526020600020906002020160010160009054906101000a900460ff16838381518110151561034757fe5b906020019060200201901515908115158152505081806001019250506102cc565b8383975097505050505050509091565b8061038281610401565b151561038d57600080fd5b600160008381548110151561039e57fe5b906000526020600020906002020160010160006101000a81548160ff0219169083151502179055507f61d1105621ac231cbad3b861dbf7afa380522c35d47c2dc979cd1da098689104826040518082815260200191505060405180910390a15050565b6000808281548110151561041157fe5b906000526020600020906002020160010160019054906101000a900460ff169050919050565b8061044181610401565b151561044c57600080fd5b6000808381548110151561045c57fe5b906000526020600020906002020160010160016101000a81548160ff0219169083151502179055507f73e4229b811312fffcc660ed4dc33edcb38ca330ced2c471913a1c46b81509e3826040518082815260200191505060405180910390a15050565b6000816104cb81610401565b15156104d657600080fd5b6000838154811015156104e557fe5b906000526020600020906002020160010160009054906101000a900460ff16915050919050565b6105146106cb565b600060606040519081016040528084815260200160001515815260200160011515815250915060016000805480600101828161055091906106f7565b916000526020600020906002020160008590919091506000820151816000019080519060200190610582929190610729565b5060208201518160010160006101000a81548160ff02191690831515021790555060408201518160010160016101000a81548160ff02191690831515021790555050500390507f6edbfebf4adc3e180444860a21cd838446f00049410a44c6ec4a178a2ebe529b816040518082815260200191505060405180910390a1505050565b61060c6106a3565b60006106166106a3565b60008060008054905060405180591061062c5750595b9080825280602002602001820160405250925060009150600090505b6000805490508110156106965761065e81610401565b156106895780838381518110151561067257fe5b906020019060200201818152505081806001019250505b8080600101915050610648565b8282945094505050509091565b602060405190810160405280600081525090565b602060405190810160405280600081525090565b6060604051908101604052806106df6107a9565b81526020016000151581526020016000151581525090565b8154818355818115116107245760020281600202836000526020600020918201910161072391906107bd565b5b505050565b828054600181600116156101000203166002900490600052602060002090601f016020900481019282601f1061076a57805160ff1916838001178555610798565b82800160010185558215610798579182015b8281111561079757825182559160200191906001019061077c565b5b5090506107a59190610814565b5090565b602060405190810160405280600081525090565b61081191905b8082111561080d57600080820160006107dc9190610839565b6001820160006101000a81549060ff02191690556001820160016101000a81549060ff0219169055506002016107c3565b5090565b90565b61083691905b8082111561083257600081600090555060010161081a565b5090565b90565b50805460018160011615610100020316600290046000825580601f1061085f575061087e565b601f01602090049060005260206000209081019061087d9190610814565b5b505600a165627a7a72305820dd795f4df313c8489e0f3c07e0ea37a30ee0915a3622f4e758b3ed96133ab53f0029",
  "source": "pragma solidity ^0.4.17;\n\ncontract TodoFactory {\n\n  event OnTodoAdded(uint todoId);\n  event OnTodoDeleted(uint todoId);\n  event OnTodoCompleted(uint todoId);\n\n  struct Todo {\n    string taskName;\n    bool isComplete;\n    bool isValid;\n  }\n\n  Todo[] todos;\n\n\n  // Modifier\n  modifier isValidTodo(uint _todoId) {\n    require(isTodoValid(_todoId));\n    _;\n  }\n\n\n  // Public function\n  function isTodoValid(uint _todoId) public view returns(bool isValid) {\n    return todos[_todoId].isValid;\n  }\n\n  function isTodoCompleted(uint _todoId) public view isValidTodo(_todoId) returns(bool isValid) {\n    return todos[_todoId].isComplete;\n  }\n\n  function getTodoList() public view returns(uint[], bool[]) {\n    uint len;\n    uint[] memory valids;\n\n    (valids, len) = _getValidTodos();\n\n    uint[] memory ids = new uint[](len);\n    bool[] memory isCompletes = new bool[](len);\n    for (uint i = 0; i < len; i++) {\n      uint id = valids[i];\n      ids[i] = id;\n      isCompletes[i] = todos[id].isComplete;\n    }\n    return (ids, isCompletes);\n  }\n\n  function addTodo(string _taskName) public {\n    Todo memory todo = Todo(_taskName, false, true);\n    uint todoId = todos.push(todo) - 1;\n    \n    OnTodoAdded(todoId);\n  }\n\n  function deleteTodo(uint _todoId) public isValidTodo(_todoId) {\n    todos[_todoId].isValid = false;\n\n    OnTodoDeleted(_todoId);\n  }\n\n  function completeTodo(uint _todoId) public isValidTodo(_todoId) {\n    todos[_todoId].isComplete = true;\n\n    OnTodoCompleted(_todoId);\n  }\n\n  // Private methods\n  function _getValidTodos() private view returns(uint[] valids, uint length) {\n    uint[] memory validTodos = new uint[](todos.length);\n    uint count = 0;\n    for (uint i = 0; i < todos.length; i++) {\n      if (isTodoValid(i)) {\n        validTodos[count] = i;\n        count++;\n      }\n    }\n    return(validTodos, count);\n  }\n}\n",
  "sourcePath": "/Users/yu/Documents/Learning/Ethereum/EthereumTodo/contracts/TodoFactory.sol",
  "compiler": {
    "name": "solc",
    "version": "0.4.19+commit.c4cbbb05.Emscripten.clang"
  },
  "schemaVersion": "1.0.1",
  "updatedAt": "2018-03-11T12:56:31.236Z"
}